:020000040000FA
:020000000628D0
:08000800F62109000E2064003E
:1000100071185F207208031D7F2107282000063019
:100020008C0008308E00210002308C0027308E00BA
:10003000230000308C0000308E00240006308C003D
:1000400027308E00270000308C0000308E00210009
:10005000F03099001A1E2A28210007309500203020
:1000600091002000313098000030990023002430A6
:100070009E0090309D0008309F0000309C0044306E
:100080009B0024000130950000309600003097005E
:100090004030940021308500223087002000F1019B
:1000A000A201A301A4010130A500A901AA01003009
:1000B000F200F401F501F601C0308B00080071195F
:1000C000FD28F11902290730210203180729210808
:1000D0000B0070287A289528A128AA28D128F8286A
:1000E0002208031D11290130212102302121023073
:1000F0002121162901302202031D11291C21F000A3
:10010000701C92280C140C14292139211810F93074
:100110009700F2309600111018146400111C8D28FD
:100120001810162948210C101629711F0C298E1140
:100130008C101C2157212121A20B99288E158C147B
:10014000162902302202031D11291C21A3001C21A3
:10015000A4001629711F0C298E112208A00061210C
:10016000662173212208A000AA018C1003305721B8
:1001700023085721240857211C21F0005721700221
:10018000031DCC28A00BBC288E158C142208A000BF
:1001900032210030212116298E158C1401302121A5
:1001A0001629711F0C29711AEC2801302202031D37
:1001B000112971161C21A0008E118C1003305721BB
:1001C00023085721240857213221030157212121D7
:1001D000A0030130F2001B2920080319F4280301B1
:1001E00057212121A0031B298E158C147112182967
:1001F0002208031D1129292116290230F20002309C
:10020000212118290230F20003302121182902305F
:10021000F2000030212118290230F20001302121A2
:1002200018290230F2000430212118290130F2008F
:100230007110AA01F50108002A088400AA0A000822
:100240000800F0007508860070088100F50AF40ABD
:1002500008000C1100000000000000000000000079
:1002600000000C15200803193729A4070318A30A56
:10027000080024009516210000308C0022308E00EA
:10028000240004308C0022308E00200071170800FA
:1002900024009512210002308C0027308E002400AB
:1002A00006308C0027308E002000711308002400D7
:1002B00091002000911D5A2991112400110820005D
:1002C00008008C10063057218C1408008C10023066
:1002D000572123085721240857211C215721A00BFF
:1002E0006D298C14080064008C10053057215721AB
:1002F000203903197D298C1473298C1408002300DC
:100300009E1CE22972189329F21897297219A929BB
:10031000F219AF29721AB829F21AC829721BD0290A
:10032000F21BDD29E22952309A00F3009A29583055
:100330009A00F30074080319A529F11CA2290430BE
:10034000F200E2290830F200E229F6012030F20042
:10035000E22920309A00F3070830F200E2297608FB
:100360008600010EE4219A00F3071030F200E22922
:10037000760886000108E4219A00F307F60AF403E0
:1003800074080319A529F11CA2290430F200E229FE
:100390000D30F11C54309A00F3074030F200E2298E
:1003A000F118D829730EE4219A008030F200E22976
:1003B0000A309A000030F200E2297308E4219A0022
:1003C0000030F200200008000F390B0030343134C7
:1003D00032343334343435343634373438343934D1
:1003E0004134423443344434453446342000911E71
:1003F000080023001D19FF299D1C062A1908190849
:100400001D121D1620000130A500F6291908200034
:10041000A6000D3026020319F62948302602031DD6
:100420001A2A0230A500A201A901F1112608A8008C
:100430007111F6292518F629A518292A2519362A11
:10044000A519592A251A742AA51A992A251BA52AFD
:10045000B22AB522203026020319F629BF22F11F45
:10046000AE2A2608A7000430A500F629B5222030C0
:100470002602031D402A2708A1000830A500F629FE
:10048000BF22F11F492A270E2604A1000830A5002B
:10049000F62954302602031D532A2708A100F11023
:1004A0002030A500F6290A302602031DAE2AF114D9
:1004B000B12AB522203026020319F629BF22F11FE6
:1004C000662A260EA7001030A500F6295430260211
:1004D000031D6E2AF1102030A500F6290A302602ED
:1004E000031DAE2AF114B12AB52220302602031DC5
:1004F0007E2AA70EB8220830A500F629BF22F11FD8
:10050000872A2608A704B8220830A500F629543007
:100510002602031D912AA70EB822F1102030A50053
:10052000F6290A302602031DAE2AA70EB822F114BE
:10053000B12A203026020319F629BF22F11FAE2A64
:10054000260EA7004030A500F629BF22F11FAE2AD3
:100550002608270428020319B12AB02AF115B12A66
:10056000711571140130A500F6292608A8070800A6
:100570002908840027088000A90AA20A0800303050
:100580002602031CD72A3A302602031CD92A4130FE
:100590002602031CD72A47302602031CDC2A6130BE
:1005A0002602031CD72A67302602031CE12AF11316
:1005B00008003030A602E52A413026020A3EA60095
:0E05C000E52A613026020A3EA600F117080067
:020000040001F9
:02000E00D4CD4F
:02001000FFDD12
:00000001FF
