:10000000E00F0010C5000000C1000000C1000000AA
:1000100000000000000000000000000000000000E0
:10002000000000000000000000000000C10000000F
:100030000000000000000000C100000049010000B5
:10004000C1000000C1000000000000009D0F000082
:10005000C1000000C100000000000000000000001E
:10006000C100000035010000C1000000C100000017
:10007000C1000000C100000000000000C10000003D
:100080000000000000000000000000000000000070
:100090000000000000000000000000000000000060
:1000A00021010000C1000000C1000000C1000000EB
:1000B000C1000000C1000000C1000000C10000003C
:1000C000FEE7000008B580235B050E4A04C30E4A14
:1000D0009342FAD100230D4A0D499A188A4204D25C
:1000E0000C49C95804331160F5E70B4B0B4A191D35
:1000F000043B934203D200221A600B1CF6E700F087
:1001000067F8FEE7BEBAFECA00100010000000103B
:10011000080000105C1100000C000010F40000103A
:1001200008B5034B01225A6200F0A4FD08BDC04689
:10013000004000A008B5034B10221A6000F0A0FD9B
:1001400008BDC046F4400050044B1B68DA0303D5D9
:10015000034B1A6801321A607047C04610E000E095
:100160000C0000107FB50E4B01225242DA61A02232
:10017000802312069B01D15801208143D150094AA6
:100180008E239B00D15840200143D1503923019345
:1001900072B601A8011C044B984707B000BDC046C9
:1001A00000C0004000800440F11FFF1F064B0121EA
:1001B000DA680A43DA600C225043044A104018609F
:1001C000DA68D107FCD5704700400040FCFFFF7F94
:1001D0007E4BF7B500257E4F1D61FB6F7D4A7E4843
:1001E0001343FB67172343657C4B022199607C4BCB
:1001F0007C4E9D6331225D63E0237B4C52425B0069
:10020000F2508E268E402162A359202293439620DD
:10021000A3518840FFF7CAFFA35980229343A351FB
:10022000012323640220656463646E4BA060E06870
:1002300001216D4A0842FAD0FC240020042503263F
:10024000644295671667506751671C60674C684E3B
:10025000DC60684C1C61684C9C61684CDC61A023CC
:1002600080241B06A4011D5935431D51644CC02632
:100270001851644CB6001851634BC020C00218607E
:100280005C688420240C88402043D8805F4C604800
:10029000604D1C526048FA24E4001C525F481C5216
:1002A0005F481C525F489851C126B6009D51C22636
:1002B000B6009851C3255C4EAD005E51C426B60011
:1002C00098515A4DC526B6009D51C626B600985184
:1002D000C725574EAD005E51A026F6009951A126C4
:1002E000F6009951A226F6009951524E02259D51D1
:1002F000514E04259D51514D08265E515D68B6262C
:100300008E40ADB235439D80C825AD005851802543
:10031000C9206D0180001D50494B102518682E4ED4
:10032000284318600A23F367464B40201961FF23D6
:1003300053628E239B00D1588143D1508023DB052B
:100340000320AA2218605C609A6055229A603E4C95
:100350003E4B96206360A36007232360000200F0F9
:10036000DDFD00F0AFFDFA6F394B3A481340FB67F3
:100370008022394B52041A60802292001A60FFF7E3
:1003800015FF00F0F7F9354B354A1968002901D1FE
:10039000117010E001211170226802218A4322604D
:1003A000BFF34F8FBFF36F8F1A68013A1A60264B65
:1003B0001A680A431A6000F009FA00F0FBF880237B
:1003C000DB05AA229A6055229A60DCE7000004400F
:1003D00004800440000D0600FC8004400040004002
:1003E0000040044000C0004000800440FFFFFF01C7
:1003F000EF200000020B03FFFFFFFF070600FFFFD7
:1004000034100000141000000040005014340000AC
:100410000202000010100000060200000A020000A4
:100420000E020000FFFF000011100000121000007B
:1004300013100000040500000C0500001405000066
:10044000F0400050004000A010E000E0C0D40100E7
:100450007FFFFBFF204E000000E100E00C000010D9
:10046000080000100023034AD25CC2540133192B48
:10047000F9D17047C03F0000F0B5002387B0061CDB
:10048000224CF15CE25C91423BD0A50A32230193FD
:100490000295039572B61E4B01A81B68011C984774
:1004A00062B6019B1A4F002B2ED13B230193A30967
:1004B00002930393174B049372B601A8011C3B6887
:1004C000984762B6019B002B1ED1322301930295FF
:1004D000039572B601A8011C3B68984762B6019B60
:1004E000002B11D13323019340230493094B029431
:1004F0000396059372B601A83B68011C984762B643
:1005000002E00133192BBBD107B0F0BDC03F0000A2
:1005100050110000E02E0000224A038810B59918FF
:10052000214A89B2041C91420ED8204A934202D833
:10053000C8239B0003801E4B22889A4200D9238047
:100540002388A288934201D1002328E065209342AA
:1005500014D2E188994200D9E380E188D31A584344
:10056000511A00F093FD80B203B2642B01DC60806D
:1005700001E06423638063885B4210E02189994233
:1005800000D2238121899B1A5843891A00F07EFDED
:1005900080B203B2642B01DC608001E064236380DD
:1005A00010BDC046A8FDFFFF6C0700001F03000040
:1005B000FC080000F8B5344B344E1B78002B54D0A7
:1005C000334B344D1A78344B002A40D01A78132A12
:1005D0003DD9324803210288438880884A434B43EF
:1005E00041432F4F891039802E492F4C08789208AB
:1005F0009B082280638100280DD101200870A28011
:10060000111CC83222811A1CE381C839C83AC83388
:10061000E18022826382201CFFF77EFF201C0A30CB
:10062000FFF77AFF638839886B70A389AB701F4B23
:100630001A78002A04D01E4A914206D8002203E00C
:100640001C4A914201D901221A701B7808E01A78DD
:10065000132A01D801321A7000236B70AB7010237B
:10066000EB7087232B70002333703378032B0AD869
:1006700000F084FC002806D033785A1C3270054AFA
:10068000D05600F083FCF8BD0800001000000010F8
:10069000430000102A000010280000104400001041
:1006A0002600001029000010120000101000001099
:1006B000D6050000E1050000054B00221A70054B2D
:1006C00040221A60044B054A1A805A809A8070476B
:1006D0008C0000108400001098000010DC05000061
:1006E0000023084A0849985C58540133052BF8D177
:1006F0000023D1184879054958540133142BF8D1F7
:100700007047C046A0000010740000102E000010BA
:1007100038B5114B04215A68104D92B20A43002497
:100720009A802C7000F0E6FA0D4B05211C600D4BF1
:100730000D4A01201C602C7000F0E4FA0B4B187875
:1007400000F00AFB00F036FB402000F04AFB084BAB
:100750001C7000F0C3FA38BD004000505C0000106F
:100760006000001058000010740000102E000010EF
:100770004200001008B51348FFF774FEFFF7B0FF02
:10078000FFF79AFF00F09EFA00F0B4FA00F086FB43
:10079000022000F02EFB402000F016FB002000F0AD
:1007A00057FB0021012000F037FB052000F042FB41
:1007B00001200A2100F05FFBFFF7AAFF024B002295
:1007C0001A6008BDA00000107C000010CC4BF7B5EB
:1007D0001B78002B30D0CB4B1A68002A01D0013A8D
:1007E0001A60C94B1A68002A01D0013A1A60C74C36
:1007F0002368002B01D0013B2360C54B1A68002AF7
:1008000001D0013A1A60C34AA0231B069F58C24D6B
:100810007A1E97412A78FEB2002A08D02068002864
:1008200005D10121BD4A49429950FFF79BFCBC4BC1
:100830001A78B24200D0F9E1BA4C2578002D1DD1CA
:10084000B94B1A78002A00D1ACE01D70B74B0322D7
:100850001A6001232370B64BFA221D60AA4B520086
:100860001A6000F047FA281C0521B24A00F04AFA43
:10087000512000F071FA00F031FA93E0A24B1B68AE
:10088000002B00D181E0AC4B1A78002A00D189E01E
:1008900000221A7000F068FA002804D1A7480A2143
:1008A00000F06CFAF6E7402000F09BFAA04B1868C5
:1008B000191C032874D8A14B00F090FB021C334C88
:1008C0001A78FF2A6ED15A78AA2A6BD19A78552ABB
:1008D00068D19B4D00202880021C2E1C9D18ED78AD
:1008E000984F4019D555013280B2052AF6D1308093
:1008F00001232DE0924A1D781288D0B2854251D151
:100900005878120A90424DD19A78002A4AD19D18FF
:100910008C48ED78801801324571072AF7D10223FF
:1009200016E0874A1D781288D0B285423AD15878AD
:10093000120A904236D19A78012A33D100229D18AA
:100940008048ED78801801320573072AF7D1032318
:100950000B6027E07A4A18781288D1B2884221D1F8
:100960005978120A91421DD19A78022A1AD100228E
:100970009D187448ED7881180132CD74062AF7D19C
:10098000FFF77AFDFFF7ACFE0023684A40211360B1
:100990005C4A23701160644A1370FFF7B9FE01E0EE
:1009A00000221A602378002B00D013E1664B1B78DD
:1009B000002B15D0534B1B68002B11D1634A644B9D
:1009C000108851889288188059809A80614C624BB7
:1009D00018536248195262495A52544B02221A6003
:1009E000604F3B78002B19D05F4A00233B7013689F
:1009F000013313600F2B02D9FFF78AFE0EE000F0DF
:100A000079F95A4C14212068013000F035FB584B1D
:100A10002160585C00F0A0F900F060F9464B1A78AC
:100A2000002A00D1D6E000221A7000F09DF9434C54
:100A3000002804D1201C0A2100F0A0F9F5E7464D5A
:100A4000402000F0CEF96B6804269BB23343AB80A4
:100A5000484A80239B00EA52474A484B5A80484AFA
:100A60000023D3876A6892B2B243AA803E4A3B70A1
:100A70001360E379552B00D08AE0E178A07867789D
:100A8000090223783F4A41183F0289B26079DF1991
:100A9000511A2F4B89B20091598001022079BFB2BF
:100AA00084468C44614688B2D71B121ABFB292B2F8
:100AB0001F809A80274BEF520099284B324FE95202
:100AC000274B0E21EA52314A0A238018584300F07E
:100AD000DDFAA379627A1B02D3187B801A4B388027
:100AE00019781A1C002903D16B681B0CB343EB80E7
:100AF00001231370034A402111600C4A136069E01E
:100B00000800001084000010900000106C0000101D
:100B10005400001030100000640000101410000099
:100B200001000010700000106A0000107C0000102E
:100B30008800001054110000420000104A0000100C
:100B400072000010A0000010430000109800001078
:100B50004400001006020000004000500A0200009D
:100B60000E0200005C000010580000106000001031
:100B70002E00001087130000C4090000FE40005042
:100B800002400050FFFF000066000010000EFFFF53
:100B9000AA2B1FD1237A5A2B1AD12C4B0122617810
:100BA0001A70227809025118294A2A4B89B2511A1F
:100BB0001980E178A0780902411889B2511A598048
:100BC000617920790902411889B2521A9A8001E0AC
:100BD000FFF772FD204A1378002B0CD01F4B1868CA
:100BE000002808D11E49096819601E4BA02109067A
:100BF000C858C043C8501C4B1C491B680868834236
:100C000023D0A02417480B60240600212150012B7B
:100C100004D01349032B04D1052303E021501170A4
:100C200013E020230B60012313700EE01F70002ED1
:100C300005D196235B00236001232B70FCE5002384
:100C40002B700B4B01221A70F6E5F7BD8C000010DB
:100C5000FFFF0000980000108000001054000010FA
:100C600094000010141000007C000010040000101C
:100C70006A000010014B01221A70704742000010F8
:100C8000014B01221A7070475C00001008B5202249
:100C9000044B1043187059700220191C00F01CF905
:100CA00008BDC046BC00001010B5054C00232070E4
:100CB000211C0220637000F00FF9607810BDC0465F
:100CC000BC0000107047000008B50349FF23012055
:100CD0000B7000F001F908BDBC00001008B5A0229F
:100CE000034B01211206D1500420FFF75FFA08BD23
:100CF00034100000024BA02200211206D150704790
:100D00003410000038B500230124251C9D40A84262
:100D100004D1DBB2201CA34208D803E00133062B28
:100D2000F2D10023081C202900D9202009490A33C8
:100D3000202423430B70C0B20023834205DA013321
:100D4000D418013C2478CC54F7E7013000F0C4F803
:100D500038BDC046BC00001008B5011C7F231940F7
:100D60000520FFF793FF08BD08B5FFF7ADFF0E2381
:100D700018400E3843425841C0B208BD70B50C4D02
:100D8000C9B26123061C2B700C1C202900D9202419
:100D9000E4B2601C291C00F09FF80023A34205DA8E
:100DA0000133E95CF218013A1170F7E770BDC046F3
:100DB000BC00001008B50349E22301200B7000F0CD
:100DC0008BF808BDBC00001010B5041C0020FFF714
:100DD0006BFF70210143A143C9B20020FFF756FF0A
:100DE00010BD08B5011C702319400720FFF74EFF06
:100DF00008BD10B5041C0020FFF756FF0C239843D4
:100E0000C1B2012C01D1082301E0022C00D1194309
:100E10000020FFF73BFF10BD38B50D1C3F24011C1F
:100E200021400220FFF732FF291C21400120FFF75B
:100E30002DFF38BD08B5022803D9052802D90520A1
:100E400000E003200238C1B20320FFF71FFF08BDF6
:100E500010B5041C0620FFF727FF0623011C1940CC
:100E60002023002C02D0012C01D008231943062096
:100E7000FFF70CFF10BD70B5051C0E1C00242B1CC9
:100E80002341DA0705D5201C1130C0B2311CFFF711
:100E9000FDFE0134062CF2D170BD000010B500201B
:100EA000FFF702FF03210143041CC9B20020FFF732
:100EB000EDFEA30702D40248FFF778F910BDC04643
:100EC00094110000034B05225A621A60E422D204F6
:100ED0001A6270470080054030B50F4A9368DC0500
:100EE000FBD508180B1C834209D09468A507FCD5D4
:100EF0001D78094CE5619468E50707D4FBE780237A
:100F000093609368D805FCD5087830BD024C6469BD
:100F10001C700133E7E7C04600800540114A10B558
:100F20008021D46FC901104B2143D1675968082231
:100F30009143596059680A435A600C4B01221A6068
:100F40000B4BFF221A600B4B00221A60E1220A4B66
:100F50005202904201D1192200E04D221A6205226C
:100F60001A6010BD04800440008004409480044056
:100F7000F0800440F480044000400640024B986832
:100F80004007C00F7047C04600400640024B9A68B9
:100F90005107FBD5D8617047004006400B4B1A88BB
:100FA00092B2511C89B2198009494869094988548B
:100FB00019880F221140198007491888098888422A
:100FC00003D1198801390A401A807047F0000010D7
:100FD00000400640E0000010DE00001002B4714640
:100FE00049084900095C49008E4402BC7047C0466C
:100FF000002934D00123002210B488422CD30124CC
:101000002407A14204D2814202D209011B01F8E760
:10101000E400A14204D2814202D249005B00F8E719
:10102000884201D3401A1A434C08A04202D3001B45
:101030005C0822438C08A04202D3001B9C08224378
:10104000CC08A04202D3001BDC082243002803D0B6
:101050001B0901D00909E3E7101C10BC70470028E8
:1010600001D00020C04307B4024802A140180290FA
:1010700003BDC046D90000000029F0D003B5FFF73A
:10108000B9FF0EBC4243891A1847C046002941D017
:1010900010B4041C4C40A44601230022002900D5B2
:1010A0004942002800D5404288422CD3012424071D
:1010B000A14204D2814202D209011B01F8E7E400F7
:1010C000A14204D2814202D249005B00F8E7884283
:1010D00001D3401A1A434C08A04202D3001B5C08FB
:1010E00022438C08A04202D3001B9C082243CC0858
:1010F000A04202D3001BDC082243002803D01B09B6
:1011000001D00909E3E7101C6446002C00D54042D9
:1011100010BC7047002806D003DB0020C043400805
:1011200001E08020000607B4024802A140180290A6
:1011300003BDC046190000000029EBD003B5FFF73E
:10114000A7FF0EBC4243891A1847C0467047C046E5
:0C115000F11FFF1F122323457800000050
:08115C00FF010000FFFFFFFF8F
:04000003000000C039
:00000001FF
