:10000000E00F0010C5000000C1000000C1000000AA
:1000100000000000000000000000000000000000E0
:10002000000000000000000000000000C10000000F
:100030000000000000000000C100000049010000B5
:10004000C1000000C10000000000000029100000F5
:10005000C1000000C100000000000000000000001E
:10006000C100000035010000C1000000C100000017
:10007000C1000000C100000000000000C10000003D
:100080000000000000000000000000000000000070
:100090000000000000000000000000000000000060
:1000A00021010000C1000000C1000000C1000000EB
:1000B000C1000000C1000000C1000000C10000003C
:1000C000FEE7000008B580235B050E4A04C30E4A14
:1000D0009342FAD100230D4A0D499A188A4204D25C
:1000E0000C49C95804331160F5E70B4B0B4A191D35
:1000F000043B934203D200221A600B1CF6E700F087
:1001000059F8FEE7BEBAFECA001000100000001049
:1001100008000010E81100000C000010F4000010AE
:1001200008B5034B01225A6200F098FD08BDC04695
:10013000004000A008B5034B10221A6000F094FDA7
:1001400008BDC046F4400050044B1B68DA0303D5D9
:10015000034B1A6801321A607047C04610E000E095
:100160000C0000107FB5084A8E239B00D158402018
:100170000143D1503923019372B601A8011C034BEE
:10018000984707B000BDC04600800440F11FFF1F24
:10019000064B0121DA680A43DA600C225043044A14
:1001A00010401860DA68D107FCD570470040004065
:1001B000FCFFFF7FF7B5794B8E2292009958802083
:1001C00081439950012200211A6459645A644222E1
:1001D0009A60D8680121714A0842FAD00323136754
:1001E0006F4B00206F4C506751671861E36F6E4D85
:1001F0006E4E2B43E3671723736541276C4BE02555
:100200008D407F425F51FC256D421D60694D6A4FF4
:10021000DD606A4D1D616A4D9D616A4DDD61A023FF
:1002200080251B06AD015F51674DC0275851674DB2
:10023000BF005851664BC020C00218605D68842022
:100240002D0C88402843D880624D63481D52634876
:10025000FA25ED001D5262481D5262481D52624847
:10026000C125D851614FAD005F51C227BF00D851A1
:100270005F4DC327BF00DD51C427BF00D851C5253E
:100280005C4FAD005F51C627BF00D8515A4DC727FC
:10029000BF00DD51A027FF00D951A127FF00D95190
:1002A000A227FF00D951554FBC46654602275F5132
:1002B000534F0425DD51534D08275F515F68B62524
:1002C000BFB201972F1C019D8F403D43C827BF003F
:1002D0009D80D8518027C9207F0180001F504A4B44
:1002E00010271868FA25384318600B23F367474B2B
:1002F00040201961464B02219960FF2353628E23EF
:100300008B40D158ED008143D1508023DB0503227F
:100310001A60AA225D609A6055229A603D4D3E4B5C
:1003200096206B60AB6007232B60000200F018FE84
:1003300000F0BCFDE26F394B39481340E36780227F
:10034000384B52041A60802292001A60FFF720FF97
:1003500000F0ECF9344B354A1968002901D11170CD
:1003600010E0012111702A6802218A432A60BFF33C
:100370004F8FBFF36F8F1A68013A1A60254B1A68C6
:100380000A431A6000F0FEF900F0FAF88023DB055A
:10039000AA229A6055229A60DCE7C0460080044099
:1003A0000000044004800440000D0600FC8004406E
:1003B00000C00040FFFFFF01CE230000020A03FF40
:1003C000FFFFFF070608FFFF3410000024100000A5
:1003D000004000507F3E00000202000006020000C4
:1003E0000A0200000E020000FFFF000010100000D3
:1003F000111000001210000013100000040500008E
:100400000C05000014050000F0400050004000A062
:100410000040004010E000E0C0D401007FFFFBFF7F
:10042000204E000000E100E00C0000100800001069
:100430000023034AD25CC2540133192BF9D170470F
:10044000E8110000F0B5002387B0061C224CF15CD7
:10045000E25C91423BD0A50A3223019302950395B9
:1004600072B61E4B01A81B68011C984762B6019B1F
:100470001A4F002B2ED13B230193A3090293039320
:10048000174B049372B601A8011C3B68984762B6EB
:10049000019B002B1ED1322301930295039572B666
:1004A00001A8011C3B68984762B6019B002B11D143
:1004B0003323019340230493094B0294039605933D
:1004C00072B601A83B68011C984762B602E001338E
:1004D000192BBBD107B0F0BDE8110000DC11000002
:1004E000E02E0000224A038810B59918214A89B2EB
:1004F000041C91420ED8204A934202D8C8239B0084
:1005000003801E4B22889A4200D923802388A28828
:10051000934201D1002328E06520934214D2E18860
:10052000994200D9E380E188D31A5843511A00F068
:10053000F3FD80B203B2642B01DC608001E0642330
:10054000638063885B4210E02189994200D2238155
:1005500021899B1A5843891A00F0DEFD80B203B24C
:10056000642B01DC608001E06423638010BDC04621
:10057000A8FDFFFF6C0700001F030000FC0800003F
:10058000F8B5304B304E1B78002B4CD02F4B304DF4
:100590001B78002B3FD02F4A2F4B11782F4C00296E
:1005A0000FD10121117019885A88081CA180FA31D5
:1005B0002181111CE281FA38FA39FA32E080218275
:1005C00062821988032251438910218059889B88AF
:1005D00051435A438910224F92106181201C3A8066
:1005E000FFF780FF201C0A30FFF77CFF63883A8802
:1005F0006B70A389AB701B4B1978002904D01A4982
:100600008A4206D8002203E018498A4201D9012211
:100610001A701B7802E06B70AB701023EB708723AD
:100620002B70002333703378032B0AD800F0D0FCF2
:10063000002806D033785A1C3270054AD05600F094
:10064000CFFCF8BD080000100000001042000010B0
:1006500029000010280000104400001012000010B3
:100660002600001010000010CA070000D507000087
:10067000064B00221A70064B40221A60054BFA22E4
:10068000D2001A805A809A807047C0468C000010B1
:1006900084000010980000100023084A0849985C64
:1006A00058540133052BF8D10023D1184879054956
:1006B00058540133142BF8D17047C046A0000010E5
:1006C000740000102D00001038B5114B04215A6839
:1006D000104D92B20A4300249A802C7000F0FEFA6A
:1006E0000D4B05211C600D4B0D4A01201C602C7028
:1006F00000F0FCFA0B4B187800F022FB00F04EFBE8
:10070000402000F062FB084B1C7000F0DBFA38BDA3
:10071000004000505C000010600000105800001005
:10072000740000102D0000104100001008B513489F
:10073000FFF77EFEFFF7B0FFFFF79AFF00F0B6FA73
:1007400000F0CCFA00F09EFB022000F046FB4020B7
:1007500000F02EFB002000F06FFB0021012000F0D4
:100760004FFB052000F05AFB01200A2100F077FB27
:10077000FFF7AAFF024B00221A6008BDA00000107C
:100780007C0000109C4BF7B51B78002B30D09B4BA6
:100790001A68002A01D0013A1A60994B1A68002A97
:1007A00001D0013A1A60974C2368002B01D0013B1D
:1007B0002360954B1A68002A01D0013A1A60934AC7
:1007C000A0231B069F58924D7A1E97412A78FEB2AD
:1007D000002A08D02068002805D101218D4A49420D
:1007E0009950FFF7BFFC8C4B1A78B24200D0F3E16E
:1007F0008A4C2578002D1DD1894B1A78002A00D10A
:10080000ACE01D70874B03221A6001232370864BD6
:10081000FA221D607A4B52001A6000F05FFA281C21
:100820000521824A00F062FA512000F089FA00F0B6
:1008300049FA93E0724B1B68002B00D181E07C4B9E
:100840001A78002A00D189E000221A7000F080FA9C
:10085000002804D177480A2100F084FAF6E7402006
:1008600000F0B3FA704B1868191C032874D8714B48
:1008700000F0FAFB021C334C1A78FF2A6ED15A782A
:10088000AA2A6BD19A78552A68D16B4D002028800E
:10089000021C2E1C9D18ED78684F4019D555013269
:1008A00080B2052AF6D1308001232DE0624A1D78FE
:1008B0001288D0B2854251D15878120A90424DD157
:1008C0009A78002A4AD19D185C48ED788018013248
:1008D0004571072AF7D1022316E0574A1D7812887E
:1008E000D0B285423AD15878120A904236D19A78DD
:1008F000012A33D100229D185048ED78801801322A
:100900000573072AF7D103230B6027E04A4A1878BA
:100910001288D1B2884221D15978120A91421DD150
:100920009A78022A1AD100229D184448ED7881183D
:100930000132CD74062AF7D1FFF784FDFFF7ACFE34
:100940000023384A402113602C4A23701160344A36
:100950001370FFF7B9FE01E000221A602378002B24
:1009600000D00DE1364B1B78002B15D0234B1B68B4
:10097000002B11D1334A344B10885188928818804B
:1009800059809A80314C324B1853324819523249AF
:100990005A52244B02221A60304B1A78002A1AD07D
:1009A0002F4A2E4900230B701368013313600F2B5D
:1009B00002D9FFF789FE0EE000F090F9294C1421CE
:1009C0002068013000F09EFB274B2160585C00F04E
:1009D000B7F900F077F9164B1A78002A00D1CFE06A
:1009E00000221A7000F0B4F9124C00283ED1201CED
:1009F0000A2100F0B7F9F5E70800001084000010A4
:100A0000900000106C000010540000103010000026
:100A1000640000102410000001000010700000109D
:100A20006A0000107C00001088000010E011000037
:100A3000410000104A00001072000010A0000010D9
:100A40004200001098000010440000100602000050
:100A5000004000500A0200000E0200005C0000107E
:100A600058000010600000102D000010402000F021
:100A7000ACF9614F3868012803D900F0C4FA00F0DE
:100A8000CDFA5E4D04266B685D4A9BB23343AB8062
:100A900080239B00EA525B4A5B4B5A805B4A0023EF
:100AA000D3876A6892B2B243AA80594A3B601370F6
:100AB000E379552B42D1E178A07867780902237851
:100AC000544A41183F0289B26079DF19511A524BDA
:100AD00089B20091598001022079BFB284468C44CA
:100AE000614688B2D71B121ABFB292B21F809A8099
:100AF0004A4BEF5200994A4B4A4FE9524A4B0E215A
:100B0000EA524A4A0A238018584300F005FBA379A9
:100B1000627A1B02D3187B80454B388019781A1CE7
:100B2000002903D16B681B0CB343EB8001231370C6
:100B3000404A40211160404A136021E0AA2B1FD196
:100B4000237A5A2B1AD13D4B012261781A702278F0
:100B5000090251182F4A3A4B89B2511A1980E1788B
:100B6000A0780902411889B2511A59806179207917
:100B70000902411889B2521A9A8001E0FFF778FD04
:100B8000304A1378002B0CD02F4B1868002808D15E
:100B90002E49096819602E4BA0210906C858C04388
:100BA000C850254B2B491B680868834223D0A024DA
:100BB00027480B60240600212150012B04D0234933
:100BC000032B04D1052303E02150117013E02023EF
:100BD0000B60012313700EE01F70002E05D19623C9
:100BE0005B00236001232B7002E600232B701A4B5D
:100BF00001221A70FCE5F7BD5800001000400050BB
:100C000087130000C4090000FE400050024000505D
:100C10005C000010FFFF000044000010060200000E
:100C20000A020000660000100E020000000EFFFF26
:100C300042000010840000107C0000108C000010A6
:100C40009800001080000010540000109400001064
:100C500024100000040000106A000010014B012263
:100C60001A70704741000010014B01221A70704742
:100C70005C00001008B52022044B10431870597016
:100C80000220191C00F01CF908BDC046BC00001071
:100C900010B5054C00232070211C0220637000F069
:100CA0000FF9607810BDC046BC000010704700000E
:100CB00008B50349FF2301200B7000F001F908BDBE
:100CC000BC00001008B5A022034B01211206D15030
:100CD0000420FFF75DFA08BD34100000024BA0228B
:100CE00000211206D15070473410000038B500239F
:100CF0000124251C9D40A84204D1DBB2201CA34244
:100D000008D803E00133062BF2D10023081C202968
:100D100000D9202009490A33202423430B70C0B294
:100D20000023834205DA0133D418013C2478CC54E3
:100D3000F7E7013000F0C4F838BDC046BC00001031
:100D400008B5011C7F2319400520FFF793FF08BD5C
:100D500008B5FFF7ADFF0E2318400E384342584147
:100D6000C0B208BD70B50C4DC9B26123061C2B7012
:100D70000C1C202900D92024E4B2601C291C00F09E
:100D80009FF80023A34205DA0133E95CF218013A27
:100D90001170F7E770BDC046BC00001008B50349EC
:100DA000E22301200B7000F08BF808BDBC0000109E
:100DB00010B5041C0020FFF76BFF70210143A14315
:100DC000C9B20020FFF756FF10BD08B5011C702303
:100DD00019400720FFF74EFF08BD10B5041C002086
:100DE000FFF756FF0C239843C1B2012C01D1082311
:100DF00001E0022C00D119430020FFF73BFF10BD9A
:100E000038B50D1C3F24011C21400220FFF732FFA2
:100E1000291C21400120FFF72DFF38BD08B502280D
:100E200003D9052802D9052000E003200238C1B209
:100E30000320FFF71FFF08BD10B5041C0620FFF7B5
:100E400027FF0623011C19402023002C02D0012C6F
:100E500001D0082319430620FFF70CFF10BD70B521
:100E6000051C0E1C00242B1C2341DA0705D5201C71
:100E70001130C0B2311CFFF7FDFE0134062CF2D157
:100E800070BD000010B50020FFF702FF03210143F1
:100E9000041CC9B20020FFF7EDFEA30702D40248EC
:100EA000FFF776F910BDC04694110000034B0522F0
:100EB0005A621A60E422D2041A6270470080054028
:100EC00030B50F4A9368DC05FBD508180B1C83422C
:100ED00009D09468A507FCD51D78094CE561946894
:100EE000E50707D4FBE7802393609368D805FCD51A
:100EF000087830BD024C64691C700133E7E7C046D6
:100F000000800540F0B587B06D46061C0191009247
:100F10001F1C0D35301C009900F0F4F82C1C092919
:100F200001D8303100E05731C9B26B1E1970301C46
:100F3000009900F0A3F8013F061E01D00135E9E752
:100F4000002FFBDC019B03AA944204D9013C2278C8
:100F50001A700133F7E700221A7007B0F0BD0000E5
:100F6000144A10B58021D46FC901134B2143D167B6
:100F7000596808229143596059680A435A600F4BD7
:100F800001221A600E4BFF221A600E4B16221A60C5
:100F9000E1220D4B5202904201D1052200E01122C4
:100FA0001A6205221A600122DA60084B08221A60D0
:100FB00010BDC0460480044000800440948004407A
:100FC000F0800440F48004400040064000E100E06E
:100FD000024B98684007C00F7047C046004006406B
:100FE000024B9A685107FBD5D86170470040064014
:100FF00010B5041C2078002804D040B2FFF7F0FFA1
:101000000134F7E710BD1FB50A2201A90023FFF73D
:1010100079FF01A8FFF7ECFF05B000BD08B50A2075
:10102000FFF7DEFF08BD00000B4B1A8892B2511C7F
:1010300089B21980094948690949885419880F22D9
:1010400011401980074918880988884203D11988F6
:1010500001390A401A807047F00000100040064035
:10106000E0000010DE00001002B47146490849009B
:10107000095C49008E4402BC7047C046002934D048
:101080000123002210B488422CD301242407A1425A
:1010900004D2814202D209011B01F8E7E400A14217
:1010A00004D2814202D249005B00F8E7884201D3B2
:1010B000401A1A434C08A04202D3001B5C0822438A
:1010C0008C08A04202D3001B9C082243CC08A042FB
:1010D00002D3001BDC082243002803D01B0901D0E7
:1010E0000909E3E7101C10BC7047002801D000205C
:1010F000C04307B4024802A14018029003BDC04695
:10110000D90000000029F0D003B5FFF7B9FF0EBCED
:101110004243891A1847C046002941D010B4041C24
:101120004C40A44601230022002900D54942002852
:1011300000D5404288422CD301242407A14204D286
:10114000814202D209011B01F8E7E400A14204D266
:10115000814202D249005B00F8E7884201D3401A7D
:101160001A434C08A04202D3001B5C0822438C089F
:10117000A04202D3001B9C082243CC08A04202D309
:10118000001BDC082243002803D01B0901D00909F9
:10119000E3E7101C6446002C00D5404210BC7047A9
:1011A000002806D003DB0020C043400801E0802077
:1011B000000607B4024802A14018029003BDC046D1
:1011C000190000000029EBD003B5FFF7A7FF0EBC04
:1011D0004243891A1847C0467047C046F11FFF1F97
:0811E0001223234578000000F2
:0811E800FF010000FFFFFFFF03
:04000003000000C039
:00000001FF
