:100000000209DF1213FEEF5470FF2202053FEF24B6
:10001000FE5403FFAE19EE54FC4FF519AD197F03E2
:100020000211C702070FE53A153AAC3970021539CB
:100030004C60168F828E83E01208350FBF00010ED0
:10004000740129F9E43AFA80DD222202043D1211FA
:10005000F51202BF12133512062ED2EAD2B9120DD2
:10006000DC1213907F05120E95121359BF02FA7518
:10007000A91075B910D2AF9000A0E4F0A3742FF0CE
:10008000A3E4F0A374F8F0A3E4F0A3742FF0A3E4C6
:10009000F0A374F8F0A3E4F0A3742FF0A3E4F0A3AA
:1000A00074F8F07593FC5394EFC28CE4F518E55F97
:1000B000700302028AE518C39414500405188002E4
:1000C000D28CC2ACE4FF749A2FF582E43400F5833D
:1000D000E0FE74022FF582E43400F583EEF00FBFEA
:1000E00006E4D2AC900003E0FF54F064A060030289
:1000F00002289000A0F0A3EFF0E07F00FE9000A0A7
:10010000F0A3EFF0EE540F9000A0F0A3EFF09000FA
:1001100005E0FF9000A1E02FF09000A0E03400F097
:10012000E0FEA3E0FF7C007D0E1208479000A0EEE9
:10013000F0A3EFF09000A0E0FEA3E0FF7D0A12081C
:10014000599000A0EEF0A3EFF0E02400F09000A0A2
:10015000E034F2F0900004E0FB7A009000A2EAF0B4
:10016000A3EBF0E0C4F8540FC868FF9000A2E0C40D
:1001700054F048FEF0A3EFF0EE540F9000A2F0A36D
:10018000E4F0900006E0FF9000A3E02FF09000A2C2
:10019000E03400F0E0FEA3E0FF7C007D0E12084793
:1001A0009000A2EEF0A3EFF09000A2E0FEA3E0FF2B
:1001B0007D0A1208599000A2EEF0A3EFF0E02400AF
:1001C000F09000A2E034F2F09000A4EAF0A3EBF08B
:1001D000E07F00FE9000A4F0A3EFF0EE540F90003B
:1001E000A4F0A3EFF0900007E0FF9000A5E02FF04F
:1001F0009000A4E03400F0E0FEA3E0FF7C007D0E60
:100200001208479000A4EEF0A3EFF07D0A120859FF
:100210009000A4EEF0A3EFF0E02400F09000A4E042
:1002200034F2F0756301805F900003E064BB7057A7
:10023000900007E020E208900000745BF080489096
:100240000005E075F008A42480FFE5F034F4FE908A
:100250000000745AF0AD07900040EDF0AF0690003A
:100260003EEFF0900006E075F008A42480FFE5F072
:1002700034F4FE900000745AF0AD0790003DEDF0AC
:10028000AF06900014EFF0E4F55FE55E7003020046
:10029000AEE4F55E900095E0D3940150030200AE09
:1002A000C28CC2B9638003121335900095E024FE1E
:1002B0009000A8F0120BAC12062ED2B90200AE7F4D
:1002C0009A7E011211938F197F9B7E011211938FD9
:1002D0001AE51964AA7072E51A64AA706CFFFE121E
:1002E00011939000A8EFF0E4F51B9000A8E075F0E2
:1002F00019A47C00251BFFEC35F0FE1211937464E9
:10030000251BF582E43400F583EFF0051BE51BC3E4
:10031000940540D6E4F51B9000A8E075F019A424DC
:1003200005FFE435F0FE7C00EF251BFFEC3EFE12DE
:1003300011937450251BF582E43400F583EFF0052A
:100340001BE51BC3941440CF22E4F51B120FA1122E
:1003500010C9E4F51CE51B75F019A47C00251CFFF1
:10036000EC35F0FE7464251CF582E43400F583E07E
:10037000FD121174051CE51CC3940540D8E4F51C5E
:10038000E51B75F019A42405FFE435F0FE7C00EFB1
:10039000251CFFEC3EFE7450251CF582E43400F56C
:1003A00083E0FD121174051CE51CC3941440D105B3
:1003B0001BE51BC3941040947519AA751AAAAD19B0
:1003C0007F9A7E01121174AD1A7F9B7E0112117407
:1003D000E49000A8F0FDFFFE121174E4F51B9000FC
:1003E000A8E075F019A47C00251BFFEC35F0FE1287
:1003F00011937464251BF582E43400F583EFF00556
:100400001BE51BC3940540D6E4F51B9000A8E075DE
:10041000F019A42405FFE435F0FE7C00EF251BFF56
:10042000EC3EFE1211937450251BF582E43400F566
:1004300083EFF0051BE51BC3941440CF22C0E0C03E
:10044000F0C083C082C0D075D000C000C001C0021F
:10045000C003C004C005C006C007121305EF24F096
:10046000700302051E24F06003020524C29490006C
:1004700013E004F0E0C39402501E7B017A0079413E
:100480007D0A121419D294750E14D2E8AF0E150E0F
:10049000EF70F9C2E8020521900013E06402704792
:1004A000FB7A0079227F06120E1BE4FF1211557FA2
:1004B0005112124DE52875F00AA42415F97400357F
:1004C000F0FA7B017D0A121419E528C39403500445
:1004D00005288003752800750E14D2E8AF0E150E9E
:1004E000EF70F9C2E8803A900013E0640370327F45
:1004F000021211557B017A0079647F06120E1B905F
:100500000012E004F0E075F01484E5F0F0E024500F
:10051000F582E43400F583E0FF12124D80031213DC
:10052000F4752700D007D006D005D004D003D00240
:10053000D001D000D0D0D082D083D0F0D0E032C073
:10054000E0C0F0C083C082C0D075D000C000C00140
:10055000C002C003C004C005C006C007758CFA7590
:100560008ACA900001E004F0E0D39404500302062C
:1005700013D295E4F090003F74FFF0E563606FE5FF
:100580002A940A5037052A9000A0E0FEA3E09000CC
:1005900041F0EEA3F09000A2E0FEA3E0900043F053
:1005A000EEA3F09000A4E0FEA3E0900045F0EEA3DF
:1005B000F09000487455F0A37467802E752A00905F
:1005C0000040E0A3F090003EE0900042F090003D3B
:1005D000E0900043F0900014E0900044F090004858
:1005E00074AAF0900000E0900049F07563007B0170
:1005F0007A0079417D0A121419750814D2E8AF08FF
:100600001508EF70F9C2E8D294752701900013E441
:10061000F0C295D007D006D005D004D003D002D0C8
:1006200001D000D0D0D082D083D0F0D0E032E4FF2F
:10063000FEFD74642DF582E43400F583E02FFFE4C1
:100640003EFE0DBD05ECAD07A905EEFF900015744B
:10065000FFF0A374AAF0A37455F07D0374612DF527
:1006600082E43400F583E0FE74152DF582E4340055
:10067000F583EEF00DBD08E4E4F5287D01ED75F09D
:100680000AA42415F582E43400F583E9F0ED75F051
:100690000AA42416F582E43400F583EFF0ED14FE8D
:1006A000ED75F00AA42417F582E43400F583EEF02A
:1006B0000DBD04C9E4FD74502DF582E43400F583CA
:1006C000E0FF74222DF582E43400F583EFF00DBDD8
:1006D00007E4E4FD74572DF582E43400F583E0FF70
:1006E000742C2DF582E43400F583EFF00DBD07E4A2
:1006F000E4FD745E2DF582E43400F583E0FF74368A
:100700002DF582E43400F583EFF00DBD06E422C040
:10071000E0C083C082C0D075D000C007209803021B
:1007200007DFC298900091E0FF700DE599B4FF06D5
:100730007401F00207DF8079EFB40121E599B45527
:10074000099000917402F00207DFE599900091B4DE
:10075000AA067408F00207DFE4F00207DFEFB40234
:1007600016E599900091B4AA0A7403F0900093E4FE
:10077000F0806CE4F08068EFB40321900093E024F3
:100780009AF582E43400F583E599F0900093E00453
:10079000F0E0640C7049F0755F01803F900091E0DB
:1007A000FFB40814E599B455087409F0A3E4F08087
:1007B0002E900091E4F08027EFB40923900092E09E
:1007C0002494F582E43400F583E599F0900092E0FA
:1007D00004F0E0B40C09E4F0755E01900091F03093
:1007E0009902C299D007D0D0D082D083D0E032BB5A
:1007F000010689828A83E0225002E722BBFE02E3DF
:100800002289828A83E49322BB010CE58229F58246
:10081000E5833AF583E0225006E92582F8E622BB1B
:10082000FE06E92582F8E222E58229F582E5833A8F
:10083000F583E49322BB010689828A83F022500269
:10084000F722BBFE01F322EF8DF0A4A8F0CF8CF0CD
:10085000A428CE8DF0A42EFE22BC000BBE0029EFF2
:100860008DF084FFADF022E4CCF875F008EF2FFF97
:10087000EE33FEEC33FCEE9DEC984005FCEE9DFE65
:100880000FD5F0E9E4CEFD22EDF8F5F0EE8420D2AC
:100890001CFEADF075F008EF2FFFED33FD4007981B
:1008A0005006D5F0F222C398FD0FD5F0EA22120FC0
:1008B000CF1208B6AF05E4FEEF30E705439404809D
:1008C000055394FBC292EF25E0FF000000000000FA
:1008D000000000000000000000D2900000000000B6
:1008E00000000000000000000000C2900EBE08C81A
:1008F00000000000000000000000000000000043B5
:10090000940400000000000000000000000000004F
:1009100000D2900000000000000000000000000075
:100920000000309214C2900000000000000000009F
:100930000000000000007F0022C2900000000000C4
:10094000000000000000000000007F01228F417FB6
:10095000021212F88F427F011212F88F43E5411400
:10096000601C14602914603614604514605024051E
:100970007060AF42EF5401F544AF43EF804EAF4299
:10098000EFC3135401F544AF43EFC313803EAF42AE
:10099000EF13135401F544AF43EF1313802EAF420E
:1009A000EF1313135401F544AF43EF131313801CDB
:1009B000AF42EFC45401F544AF43EFC4800EAF42E1
:1009C000EFC4135401F544AF43EFC4135401F5458C
:1009D0008005E4F544F545E54525E02544FF22780A
:1009E0007FE4F6D8FD758163020A2602004EE49387
:1009F000A3F8E493A34003F68001F208DFF4802912
:100A0000E493A3F85407240CC8C333C4540F442000
:100A1000C8834004F456800146F6DFE4800B0102EF
:100A2000040810204080900D0CE47E019360BCA36C
:100A3000FF543F30E509541FFEE493A360010ECF3D
:100A400054C025E060A840B8E493A3FAE493A3F867
:100A5000E493A3C8C582C8CAC583CAF0A3C8C58227
:100A6000C8CAC583CADFE9DEE780BE8F3B8B3C8AFC
:100A70003D893EE53B14600C24FB600824FE6014B5
:100A80002408702B12139A8F3F8F40C2E9E53B2454
:100A90000AFF80161213D68F3BEFC3940750101233
:100AA000143A8F3F8F40C2E97F611214088005E439
:100AB000F540F53FAF3F153FEF6019E4FF12140812
:100AC000AB3C053EE53EAA3D7002053D14F9EF1230
:100AD000083580E0D2E9E53BFEE540FF228F198D25
:100AE0001AE4FF1212F88F1BE51924FB601F146033
:100AF000352402704CE51A60047F0080027F01EF0C
:100B00005401C454F0FFAE1BEE54EF8031E51A607F
:100B1000047F0080027F01EF5401C43354E0FFAE34
:100B20001BEE54DF8018E51A60047F0080027F010D
:100B3000EF5401C4333354C0FFAE1BEE54BF4FF526
:100B40001BAD1BE4FF0211C7E4FF439404FE000049
:100B500000000000000000000000000000C2900043
:100B60000000000000000000000000000000D29023
:100B7000000000000000000000000000000000EF86
:100B800025E0FF3092010F0000000000000000008F
:100B90000000000000000EBE08B4C290000000007B
:100BA000000000000000000000000022E4F51990A1
:100BB00000A8E075F019A47C002519FFEC35F0FEC3
:100BC00012119374642519F582E43400F583EFF073
:100BD0000519E519C3940540D6E4F5199000A8E07D
:100BE00075F019A42405FFE435F0FE7C00EF25190B
:100BF000FFEC3EFE12119374502519F582E4340087
:100C0000F583EFF00519E519C3941440CF02136F73
:100C10008F198D1A7F021212F88F1B7F011212F8A2
:100C20008F1CE51924FA500624076021802EAF1985
:100C30007401A807088002C333D8FCFF421BE51AE1
:100C40006005EF421C8015EFF4521C800F751B3FAE
:100C5000E51A6005751C3F8003E4F51CAD1B7F029F
:100C60001211C7AD1C7F010211C77FA0C29243942D
:100C700004120FCFE4FEEF30E705439404800553E0
:100C800094FBC292EF25E0FFD2900000000000C26A
:100C90009000000000000EBE08DC43940400000039
:100CA0000000000000D290000000000000000030B2
:100CB0009205C2907F0022C2907F01228B2D8A2E46
:100CC000892FA2AF92D5C2AFD2FD8E328F33E531DC
:100CD0001531AE30700215304E6025AB2D052FE575
:100CE0002FAA2E7002052E14F91207EFFF0533E527
:100CF00033AC327002053214F5828C83EFF080CE73
:100D000030FC04C2FD80F9A2D592AF22410012004E
:100D10004100010041003F00410013000522122361
:100D200023457845004B5500000000012A000129A9
:100D3000004100A800410093004100920041009151
:100D400000015F00015E004800A0F82FF82FF82F87
:100D5000F82F016300008F19E4FF1212F88F1AE5D3
:100D60001914601014601D24027027AF1AEF54F795
:100D7000F51A801EAF1AEF4408F51AAF1AEF54FBAC
:100D8000F51A800EAF1AEF4408F51AAF1AEF4404B3
:100D9000F51AAD1AE4FF0211C78F4F7F021212F845
:100DA0008F507F011212F88F51E54F24FA5006241C
:100DB0000760168019AF4F7401A807088002C3337B
:100DC000D8FCF4525052518005E4F550F551AD5025
:100DD0007F021211C7AD517F010211C77F011211AD
:100DE000127F02120D56E4FD7F04120ADD7D017FA1
:100DF00005120ADDE4FD7F06120ADDE4FDFF120C98
:100E0000107F0512000E7B017A0079087F06120E12
:100E10001B7F02120E587F030211558F198B1A8AFD
:100E20001B891CE51914600A24FB50196004240670
:100E3000702512139A8F21E519242AFFAB1AAA1BD9
:100E4000A91C020F05E519240AFFAB1AAA1BA91C4D
:100E50001207EFFD1211C7228F197F061212F88FA9
:100E60001AE519600B24FE7017AF1AEF44208005B5
:100E7000AF1AEF54DFF51AAF1AEF54F7F51A800ED8
:100E8000AF1AEF54DFF51AAF1AEF4408F51AAD1A8E
:100E90007F060211C7C2ACD29CC29FD29E438780FC
:100EA00043D880EF24FC601324FE60091470127C88
:100EB000037DF780107C037DF3800A7C037DCC806A
:100EC000047C037DE68DAA8CBAC299D2AC22EF14C1
:100ED000601414601514601614601714601824054B
:100EE000701D7F1180127F12800E7F13800A7F1485
:100EF00080067F1580027F161212F88F618003E44E
:100F0000F561AF61228B1E8A1F8920C2E98FE7E459
:100F1000FFEFC39521501BAB1EAA1FA9208F82751E
:100F20008300120808FDE5E630E1FBAEE78DE70F30
:100F300080DFE5E630E1FBAEE7D2E9228F4B8B4C58
:100F40008A4D894EE54B14600824FB60042406702A
:100F50000BAB4CAA4DA94EAF4B020A6BE54B240AD2
:100F6000FF1212F8AB4CAA4DA94EEF1208357F01C3
:100F700022AB07AE04AF057C007DFA120859EF14CE
:100F8000540FC454F0FFAE60EE540F4FF560EB54B5
:100F90000FFFAE60EE54F04FF560AD607F040211BC
:100FA000C77F0112138512137A121282EF60FA12B0
:100FB0001446EF75F03284AFF0E4FEEF2EFD74506E
:100FC0002EF582E43400F583EDF00EBE14ED2243DD
:100FD00094040000D2900000000000000000000017
:100FE0005394FBC29200000000000000000000C209
:100FF0009000000000000000000000228F5C7F06CF
:101000001212F88F5DE55C60047F0180027F00EFC3
:101010005401C43333335480FFAE5DEE547F4FF53B
:101020005DAD5D7F060211C78F547F1D1212F88FD0
:1010300055E55460047F0180027F00EF540125E0F4
:1010400025E0FFAE55EE54FB4FF555AD557F1D0223
:1010500011C78F5A7F061212F88F5BE55A60047F22
:101060000180027F00EF5401C454F0FFAE5BEE54E8
:10107000EF4FF55BAD5B7F060211C78F567F1D12E8
:1010800012F88F57E55660047F0180027F00EF540D
:101090000125E0FFAE57EE54FD4FF557AD577F1DCC
:1010A0000211C78F587F1D1212F88F59E55860043E
:1010B0007F0180027F00EF5401FFAE59EE54FE4FD6
:1010C000F559AD597F1D0211C77F01121385E4FE4A
:1010D0007F0112137A121282EF60FA1214467464BE
:1010E0002EF582E43400F583EFF00EBE05E2228F88
:1010F00052E4FF1212F88F53E552AF53B40107EFD9
:101100004401F5538005EF54FEF553AD53E4FF025F
:1011100011C78F19E4FF1212F88F1AE519AF1AB42C
:101120000107EF4402F51A8005EF54FDF51AAD1AD8
:10113000E4FF0211C75394FBC29200D2900000005A
:1011400000000000000000439404000000000000C4
:1011500000000000228F197F061212F88F1AE5197D
:10116000540325E0FFAE1AEE54F94FF51AAD1A7F7D
:10117000060211C7AB07AA06AC05AF027E00EF2539
:10118000E0FFEE33FEEF24A0FFE43EFEEBFDAB04F8
:1011900002120CAD07AC06AF047E00EF25E0FFEEB7
:1011A00033FEEF24A0FFE43EFE12123822A2AF92DB
:1011B000D5C2AFD2FD8F828E83EDF030FC04C2FD2C
:1011C00080F9A2D592AF228D1DC2E9EF2420FF1233
:1011D00014088F1EAF1D121408D2E9AF1E22D3EFE0
:1011E0009400EE9400400DE4FD0DBD0AFCEF1F706D
:1011F000ED1E80EA22759F52759F50C290C2925395
:1012000094FE4394047FC87E000211DEAE07AC0357
:101210001208AEAF041208B6121135120C6AEF6054
:10122000FA22A2AF92D5C2AFD2FD8FFA30FC04C22F
:10123000FD80F9A2D592AF22AC071208AE120FCFF3
:10124000EC04FF1208B6120B4812113522EF547F3E
:10125000FFAE0FEE54804FF50FAD0F7F050211C7A3
:101260007401A807088002C333D8FCFD7F07021170
:10127000C7EF5401C4333354C0FFE5A354B74FF54F
:10128000A322E5D65420D3940040047F0180027F3E
:101290000022EF6009E5A3448054F7F5A32253A38D
:1012A0007722E5AD5480D3940040047F0180027F13
:1012B0000022E5AD5440D3940040047F0180027FBA
:1012C0000022EF5403C454F0FFE5A354C74FF5A325
:1012D000227F081212F8EF54F0C4540FFF227F1738
:1012E0001212F8EF5430C4540FFF22121434EF548A
:1012F00040C413135403FF22C2E9121408E4FF127E
:101300001408D2E9227D707F071211C7EF5470FFD5
:10131000227F171212F8EFC3135401FF227F171216
:1013200012F8EFC4135401FF22EF543FF562AD628F
:101330007F1C0211C7E4FFFE1211939000A8EFF08A
:1013400022EF5407FFE5A354F04FF5A322EF540713
:10135000FFE5AD54F84FF5AD22E5AD30E3037F0274
:10136000227F01227F171212F8EFC45401FF22904E
:1013700000A8E0FDE4FFFE021174EF600443D68094
:101380002253D67F22EF600475D6402253D6BF2267
:10139000758901E4F58875A882227F031212F8EF9F
:1013A0002402FF227F171212F8EF5401FF227F1749
:1013B0001212F8EF5403FF227F081212F8EF540FB5
:1013C000FF227F091212F8EF5401FF22EF44A8FF19
:1013D000854A21020F051213FEEF540EC313FF229C
:1013E000C2E97FE3121408D2E922C2E97FE21214B3
:1013F00008D2E922C2E97FE1121408D2E922C2E947
:101400007FFF121408D2E9228FE7E5E630E1FBAF57
:10141000E722EF2411FF0211C78D217FA0020F05E3
:101420008D217FB0020F058F828E83E0FF227F081F
:101430001212F8227F171212F8227F601212F8227D
:101440007F08120A6B22AFD722FFFFFFFFFFFFFFCB
:10145000FFFFFFFFFFFFFFFFFFFFFFFFFFFFFFFF9C
:10146000FFFFFFFFFFFFFFFFFFFFFFFFFFFFFFFF8C
:10147000FFFFFFFFFFFFFFFFFFFFFFFFFFFFFFFF7C
:10148000FFFFFFFFFFFFFFFFFFFFFFFFFFFFFFFF6C
:00000001FF
