:1000000002083E1211FDEF5470FF22020B917F088F
:1000100012113DEF54F0C4540FFF220205B37F17B5
:1000200012113DEF5430C4540FFF220208CAAD072D
:10003000AC06AF047E00EF25E0FFEE33FEEF24A018
:10004000FFE43EFE1210E22222FFFF021246E4F518
:100050000CF50D121088120C815393DF759E5353CB
:10006000935C5394FCD2EAD2B91211851212427FEA
:1000700002120CC6E4FD7F041209B3E4FD7F0512F1
:1000800009B37D017F061209B3E4FDFF120AE47F84
:10009000051210F77F02120D897B017A00793EE488
:1000A000FF120D4C7D0AE4FF12120EE4900008F0DE
:1000B000900004F0E0242AF582E43400F583E0FFA8
:1000C00012110C7F01120FB57F01120FD8D2E8D2A6
:1000D0008CC2AF75A822D2AFC280D28120830375B3
:1000E0002B01E52B60057F4612110CE52B6020905B
:1000F0000014E0FF30E0F454FEF01211C18F0DE562
:100100000D6006D280D28180E2C280C28180DC1282
:100110000A82BF010CD281C280C2E812034675C8B0
:1001200041E5246027C2E812114A8F0B1211A3EF98
:10013000700E7B017A00791612123C752D0180EC4D
:10014000E4F524750C01752D0143A808900008E022
:10015000701290002AE0FF12110C9000087401F058
:10016000D2E8804A900008E0FFB4011FE50C603E31
:10017000C2E8E4F50C75CDFA75CCCA752C0175C8CA
:10018000417402F0E4900004F08023EFB4021FE514
:100190000C601BE4F50C75CDFA75CCCA75C84175B9
:1001A0002C01900006F0C2E8900001F0A3F090004E
:1001B00006E0D3940F4008E4F5C8F0900008F0E59D
:1001C0002D70030202E190001DE0FD645560030202
:1001D00002B1900017E0FF900009E4F0A3EFF0E017
:1001E000F8E4F0E8900009F0900016E0FF90000AB3
:1001F000E02FF0900009E03400F0900019E0FF904B
:10020000000BE4F0A3EFF0E0F8E4F0E890000BF06E
:10021000900018E0FF90000CE02FF090000BE0340D
:1002200000F090001BE0FF90000DE4F0A3EFF0E081
:10023000F8E4F0E890000DF090001AE0FF90000E56
:10024000E02FF090000DE03400F0EDFF90000FE49F
:10025000F0A3EFF0E0F8E4F0E890000FF090001C5D
:10026000E0FF900010E02FF090000FE03400F0C2AB
:10027000AF900009E0FFA3E0900022CFF0A3EFF0E1
:1002800090000BE0FFA3E0900024CFF0A3EFF090EC
:10029000000DE0FFA3E0900026CFF0A3EFF0900068
:1002A0000FE0FFA3E0900028CFF0A3EFF0D2AF80E3
:1002B0002D90001DE0B4AA26A3E0900007F0900066
:1002C00016E0900015F0900017E0900013F09000F9
:1002D00018E0900012F0900019E0900011F0E4F5A1
:1002E0002DC3900002E09428900001E09400500794
:1002F000D280C2810200EBC280D281900007E0640C
:100300005A702E900013E07F00FE900015E02FFF42
:10031000E43E900022F0A3EFF0900011E07F00FE99
:10032000A3E02FFFE43EFE900024F0A3EFF00200D4
:10033000EB90002274F8F0A3742FF0A374F8F0A3EC
:10034000742FF00200EB53A8F7E4F52DF5C8F5245F
:10035000FB7A007926FF120D4CC2E87F5112110C76
:10036000E4F510F5110511E51170020510B488F5DA
:10037000E510B413F0D2E8E4F519F51AF512F51307
:10038000E52470030204D812114A1211A3EF700B76
:100390007B017A00791612123C80EFE4F524E5190E
:1003A000705C900016E0F460030204D8A3E064AA35
:1003B00060030204D8A3E0645560030204D8FFFE82
:1003C000F510F511AD1174192DF582E43400F583A3
:1003D000E0FC74142DF8A60474142511F8E62FFF20
:1003E000E43EFE0511E5117002051064054510702C
:1003F000D38F0EEE7E00F50F7519010204D8E519B2
:1004000064017043900016E0650E7035A3E0B50FEF
:1004100030A3E0702CF510F511AF1174192FF5828F
:10042000E43400F583E0FE742A2FF582E43400F50D
:1004300083EEF00511E51170020510640745107098
:10044000D87519020204D8E51964027044900016A8
:10045000E0650E7037A3E0B50F32A3E0B4012DE4E0
:10046000F510F511AF1174192FF582E43400F583FE
:10047000E0FE74312FF582E43400F583EEF00511CF
:10048000E511700205106407451070D875190380D6
:1004900047E51964037041900016E0650E7039A3BA
:1004A000E0B50F34A3E0B4022FE4F510F511AF115D
:1004B00074192FF582E43400F583E0FE74382FF5CB
:1004C00082E43400F583EEF00511E51170020510A9
:1004D0006406451070D88069E4F510F5110511E542
:1004E0001170020510B4F4F5E510B401F0C3E51382
:1004F00094E8E5129403500E0513E513600302031C
:10050000800512020380E4F512F513638002051AD8
:10051000E51AD3940F50030203807524017B007AFF
:10052000007914E4FF120D4C9000067414F075CDA0
:10053000FAE4F5CCD281C280900001F0A3743CF0C3
:1005400022E4F510F51174142511F8E6FDAF11AE93
:1005500010120FFB0511E51170020510C39405E59B
:1005600010940040E1E4F510F511E511240AFFE4D0
:100570003510FE742A2511F582E43400F583E0FD80
:10058000120FFB0511E51170020510C39414E5105C
:10059000940040D67524017B007A007914E4FF12A0
:1005A0000D4C9000067414F075CDFAE4F5CCC281C0
:1005B000D28022C0E0C083C082C0D075D000C0020B
:1005C000C003C004C005900003E0FD701790002236
:1005D000E0FAA3E0FBEAF58D8B8B9000037401F049
:1005E000D2858067EDB40119900024E0FCA3E0FD02
:1005F000ECF58D8D8B9000037402F0C285D287805C
:100600004C900003E0FDB4021D900026E0FAA3E048
:10061000FBEAF58D8B8B9000037403F0C285C287D3
:10062000D290C291802BEDB4031D900028E0FCA372
:10063000E0FDECF58D8D8B9000037404F0C285C253
:1006400087C290D291800AC28EC285C287C290C2F0
:1006500091D005D004D003D002D0D0D082D083D0A6
:10066000E032BB010689828A83E0225002E722BB86
:10067000FE02E32289828A83E49322BB010CE58295
:1006800029F582E5833AF583E0225006E92582F8D0
:10069000E622BBFE06E92582F8E222E58229F58200
:1006A000E5833AF583E49322BB010689828A83F0CD
:1006B000225002F722BBFE01F322BC000BBE002930
:1006C000EF8DF084FFADF022E4CCF875F008EF2F49
:1006D000FFEE33FEEC33FCEE9DEC984005FCEE9D06
:1006E000FE0FD5F0E9E4CEFD22EDF8F5F0EE842022
:1006F000D21CFEADF075F008EF2FFFED33FD400783
:10070000985006D5F0F222C398FD0FD5F0EA2212D8
:100710000EC5120717AF05E4FEEF30E7054394104E
:1007200080035394EFEF25E0FF000000000000007D
:100730000000000000000000D29300000000000054
:10074000000000000000000000C2930EBE08CA00B6
:1007500000000000000000000000000000004394C2
:100760001000000000000000000000000000000079
:10077000D293000000000000000000000000000014
:1007800000309414C293000000000000000000003C
:1007900000000000007F0022C29300000000000063
:1007A0000000000000000000007F01228F3E7F0259
:1007B00012113D8F3F7F0112113D8F40E53E1460C5
:1007C0001C146029146036146045146050240570B0
:1007D00060AF3FEF5401F541AF40EF804EAF3FEFC8
:1007E000C3135401F541AF40EFC313803EAF3FEF59
:1007F00013135401F541AF40EF1313802EAF3FEFB9
:100800001313135401F541AF40EF131313801CAFC2
:100810003FEFC45401F541AF40EFC4800EAF3FEF4E
:10082000C4135401F541AF40EFC4135401F54280A5
:1008300005E4F541F542E54225E02541FF22787FB8
:10084000E4F6D8FD75815D02088502004EE493A3AD
:10085000F8E493A34003F68001F208DFF48029E472
:1008600093A3F85407240CC8C333C4540F4420C8BE
:10087000834004F456800146F6DFE4800B01020455
:100880000810204080900B3EE47E019360BCA3FFE3
:10089000543F30E509541FFEE493A360010ECF548A
:1008A000C025E060A840B8E493A3FAE493A3F8E479
:1008B00093A3C8C582C8CAC583CAF0A3C8C582C8E5
:1008C000CAC583CADFE9DEE780BEC0E0C0F0C083EE
:1008D000C082C0D075D000C000C001C002C003C03B
:1008E00004C005C006C007C2C675CDFA75CCCA05DE
:1008F0002CE52CD39404402E752C00900004E004C9
:10090000F0E075F01484E5F0F0E0242AF582E43498
:1009100000F583E0FF12110C900006E0C394145020
:1009200003E004F0D2E8D007D006D005D004D0030D
:10093000D002D001D000D0D0D082D083D0F0D0E08F
:10094000328F1B8B1C8A1D891EE51B14600C24FB37
:10095000600824FE60142408702B1211998F1F8FD9
:1009600020C2E9E51B240AFF80161211D58F1BEF68
:10097000C3940750101212368F1F8F20C2E97F6177
:1009800012118F8005E4F520F51FAF1F151FEF60D2
:1009900019E4FF12118FAB1C051EE51EAA1D700283
:1009A000051D14F9EF1206A880E0D2E9E51BFEE56B
:1009B00020FF228F0E8D0FE4FF12113D8F10E50EE8
:1009C00024FB601F1460352402704CE50F60047F27
:1009D0000080027F01EF5401C454F0FFAE10EE54CA
:1009E000EF8031E50F60047F0080027F01EF54014A
:1009F000C43354E0FFAE10EE54DF8018E50F6004FE
:100A00007F0080027F01EF5401C4333354C0FFAE36
:100A100010EE54BF4FF510AD10E4FF02109FE4FF3D
:100A2000439410FE000000000000000000000000E1
:100A3000000000C293000000000000000000000061
:100A400000000000D2930000000000000000000041
:100A50000000000000EF25E0FF3094010F000000CF
:100A60000000000000000000000000000EBE08B4FE
:100A7000C293000000000000000000000000000021
:100A80000022900014E030E05854FEF0208334C37C
:100A9000900021E09488900020E09413500CA3E093
:100AA00004F07006900020E004F0D3900021E09460
:100AB00020900020E094034007E4F0A3F07F01229F
:100AC0007F0022D3900021E09420900020E0940346
:100AD000E44006F0A3F07F0222900020F0A3F0FF94
:100AE000227F00228F0E8D0F7F0212113D8F107F0B
:100AF0000112113D8F11E50E24FA500624076021E2
:100B0000802EAF0E7401A807088002C333D8FCFF03
:100B10004210E50F6005EF42118015EFF45211808D
:100B20000F75103FE50F600575113F8003E4F51167
:100B3000AD107F0212109FAD117F0102109F420085
:100B40002000004100050041000400052612232377
:100B50004578480022F82FF82FF82FF82F48000981
:100B6000F82FF82FF82FF82F410003004100000064
:100B70004100060041000800410014000124004229
:100B800000010064012D00012500012C00012B0053
:100B900000C0E0C083C082C0D0758CFA758ACA904C
:100BA000001474FFF00525E525D3940F402A752520
:100BB00000900003E4F0758DFF758B50900002E00B
:100BC0009432900001E09400500CA3E004F0700611
:100BD000900001E004F0D28ED0D0D082D083D0E05B
:100BE000327FA0C294439410120EC5E4FEEF30E7AA
:100BF0000543941080035394EFEF25E0FFD2930058
:100C000000000000C29300000000000EBE08DE439A
:100C100094100000000000000000D29300000000CB
:100C200000000000309405C2937F0022C2937F0130
:100C3000228B308A318932A2AF92D5C2AFD2FD8EDB
:100C4000358F36E5341534AE33700215334E6025DA
:100C5000AB300532E532AA317002053114F91206C3
:100C600062FF0536E536AC357002053514F5828C29
:100C700083EFF080CE30FC04C2FD80F9A2D592AFA4
:100C800022E4F50EAF0E7E0012002E743E250EF506
:100C900082E43400F583EFF0050EE50EC3940540C1
:100CA000E3E4F50EE50E240AFFE433FE12002E7491
:100CB0002A250EF582E43400F583EFF0050EE50EEB
:100CC000C3941440DF228F0EE4FF12113D8F0FE515
:100CD0000E14601014601D24027027AF0FEF54F73C
:100CE000F50F801EAF0FEF4408F50FAF0FEF54FB69
:100CF000F50F800EAF0FEF4408F50FAF0FEF440470
:100D0000F50FAD0FE4FF02109F8F4C7F0212113DD3
:100D10008F4D7F0112113D8F4EE54C24FA50062471
:100D20000760168019AF4C7401A807088002C3330E
:100D3000D8FCF4524D524E8005E4F54DF54EAD4DC4
:100D40007F0212109FAD4E7F0102109F8F1B8B1CE4
:100D50008A1D891EE51B14600A24FB5019600424B7
:100D60000670251211998F23E51B242AFFAB1CAABC
:100D70001DA91E020DFDE51B240AFFAB1CAA1DA91F
:100D80001E120662FD12109F228F0E7F0612113D69
:100D90008F0FE50E600B24FE7017AF0FEF4420801D
:100DA00005AF0FEF54DFF50FAF0FEF54F7F50F80DE
:100DB0000EAF0FEF54DFF50FAF0FEF4408F50FAD97
:100DC0000F7F0602109FEF14601414601514601654
:100DD0001460171460182405701D7F1180127F1293
:100DE000800E7F13800A7F1480067F1580027F1695
:100DF00012113D8F5C8003E4F55CAF5C228B208A8E
:100E0000218922C2E98FE7E4FFEFC39523501BAB92
:100E100020AA21A9228F8275830012067BFDE5E6B8
:100E200030E1FBAEE78DE70F80DFE5E630E1FBAEBA
:100E3000E7D2E9228F488B498A4A894BE5481460FA
:100E40000824FB60042406700BAB49AA4AA94BAFE7
:100E500048020941E548240AFF12113DAB49AA4A5C
:100E6000A94BEF1206A87F0122AB07AE04AF057CA9
:100E7000007DFA1206BAEF14540FC454F0FFAE5BB3
:100E8000EE540F4FF55BEB540FFFAE5BEE54F04F9B
:100E9000F55BAD5B7F0402109F8F597F0612113DF9
:100EA0008F5AE55960047F0180027F00EF5401C42E
:100EB0003333335480FFAE5AEE547F4FF55AAD5A58
:100EC0007F0602109F4394100000D29300000000A0
:100ED0000000000000005394EF000000000000003C
:100EE000000000C29300000000000000000000228B
:100EF0008F517F1D12113D8F52E55160047F01809B
:100F0000027F00EF540125E025E0FFAE52EE54FBD6
:100F10004FF552AD527F1D02109F8F577F06121161
:100F20003D8F58E55760047F0180027F00EF540138
:100F3000C454F0FFAE58EE54EF4FF558AD587F064D
:100F400002109F8F537F1D12113D8F54E553600493
:100F50007F0180027F00EF540125E0FFAE54EE5484
:100F6000FD4FF554AD547F1D02109F8F557F1D120C
:100F7000113D8F56E55560047F0180027F00EF54DC
:100F800001FFAE56EE54FE4FF556AD567F1D0210D2
:100F90009FE53D153DAC3C7002153C4C60168F82C0
:100FA0008E83E01206A80FBF00010E740129F9E438
:100FB0003AFA80DD228F0EE4FF12113D8F0FE50E0D
:100FC000AF0FB40107EF4401F50F8005EF54FEF5B4
:100FD0000FAD0FE4FF02109F8F0EE4FF12113D8F43
:100FE0000FE50EAF0FB40107EF4402F50F8005EFD8
:100FF00054FDF50FAD0FE4FF02109FAB07AA06AC3E
:1010000005AF027E00EF25E0FFEE33FEEF24A0FFE8
:10101000E43EFEEBFDAB040210B68F4F7F061211CB
:101020003D8F50E54F540325E0FFAE50EE54F94F8D
:10103000F550AD507F0602109F5394EF00D29300FD
:1010400000000000000000000043941000000000B9
:1010500000000000000022A2AF92D5C2AFD2FD8FE7
:10106000828E83EDF030FC04C2FD80F9A2D592AFF0
:1010700022D3EF9400EE9400400DE4FD0DBD0AFC78
:10108000EF1F70ED1E80EA22759F54759F53C29327
:10109000C2945394F74394107FC87E000210718D60
:1010A0001FC2E9EF2420FF12118F8F20AF1F1211F2
:1010B0008FD2E9AF2022AE07AC0312070FAF0412A4
:1010C0000717121039120BE1EF60FA22A2AF92D586
:1010D000C2AFD2FD8FFA30FC04C2FD80F9A2D592D6
:1010E000AF22AC0712070F120EC5EC04FF12071750
:1010F000120A1E12103922EF24FE5403FFAE0EEE28
:1011000054FC4FF50EAD0E7F0302109FEF547FFF8E
:10111000AE1BEE54804FF51BAD1B7F0502109F7474
:1011200001A807088002C333D8FCFD7F0702109F87
:10113000121230EF5440C413135403FF22C2E912B9
:10114000118FE4FF12118FD2E9227D707F071210F8
:101150009FEF5470FF227F1712113DEFC31354010C
:10116000FF227F1712113DEFC4135401FF22EF54E9
:101170003FF55DAD5D7F1C02109F7F1712113DEFA3
:10118000C45401FF22758901E4F58875A802228FF5
:10119000E7E5E630E1FBAFE7227F0312113DEF24E4
:1011A00002FF227F1712113DEF5401FF227F171219
:1011B000113DEF5403FF227F0812113DEF540FFF42
:1011C000227F0912113DEF5401FF22EF44A8FF8551
:1011D0004723020DFD1211FDEF540EC313FF22C26F
:1011E000E97FE312118FD2E922C2E97FE212118F67
:1011F000D2E922C2E97FE112118FD2E922C2E97F4E
:10120000FF12118FD2E92275C84143A82022EF2492
:1012100011FF02109F8D237FA0020DFD8D237FB053
:10122000020DFD8F828E83E0FF227F0812113D2286
:101230007F1712113D227F6012113D227F08120993
:1012400041224389102275240132FFFFFFFFFFFF77
:10125000FFFFFFFFFFFFFFFFFFFFFFFFFFFFFFFF9E
:10126000FFFFFFFFFFFFFFFFFFFFFFFFFFFFFFFF8E
:10127000FFFFFFFFFFFFFFFFFFFFFFFFFFFFFFFF7E
:10128000FFFFFFFFFFFFFFFFFFFFFFFFFFFFFFFF6E
:00000001FF
